{
  "contractName": "SensorDataStorage",
  "abi": [
    {
      "anonymous": false,
      "inputs": [
        {
          "indexed": false,
          "internalType": "uint256",
          "name": "temperature",
          "type": "uint256"
        },
        {
          "indexed": false,
          "internalType": "uint256",
          "name": "humidity",
          "type": "uint256"
        },
        {
          "indexed": false,
          "internalType": "uint256",
          "name": "timestamp",
          "type": "uint256"
        }
      ],
      "name": "DataStored",
      "type": "event"
    },
    {
      "inputs": [
        {
          "internalType": "uint256",
          "name": "",
          "type": "uint256"
        }
      ],
      "name": "records",
      "outputs": [
        {
          "internalType": "uint256",
          "name": "temperature",
          "type": "uint256"
        },
        {
          "internalType": "uint256",
          "name": "humidity",
          "type": "uint256"
        },
        {
          "internalType": "uint256",
          "name": "timestamp",
          "type": "uint256"
        }
      ],
      "stateMutability": "view",
      "type": "function"
    },
    {
      "inputs": [
        {
          "internalType": "uint256",
          "name": "_temperature",
          "type": "uint256"
        },
        {
          "internalType": "uint256",
          "name": "_humidity",
          "type": "uint256"
        }
      ],
      "name": "storeSensorData",
      "outputs": [],
      "stateMutability": "nonpayable",
      "type": "function"
    },
    {
      "inputs": [
        {
          "internalType": "uint256",
          "name": "index",
          "type": "uint256"
        }
      ],
      "name": "getRecord",
      "outputs": [
        {
          "internalType": "uint256",
          "name": "",
          "type": "uint256"
        },
        {
          "internalType": "uint256",
          "name": "",
          "type": "uint256"
        },
        {
          "internalType": "uint256",
          "name": "",
          "type": "uint256"
        }
      ],
      "stateMutability": "view",
      "type": "function"
    },
    {
      "inputs": [],
      "name": "getLatestRecord",
      "outputs": [
        {
          "internalType": "uint256",
          "name": "",
          "type": "uint256"
        },
        {
          "internalType": "uint256",
          "name": "",
          "type": "uint256"
        },
        {
          "internalType": "uint256",
          "name": "",
          "type": "uint256"
        }
      ],
      "stateMutability": "view",
      "type": "function"
    }
  ],
  "bytecode": "0x608060405234801561001057600080fd5b50610591806100206000396000f3fe608060405234801561001057600080fd5b506004361061004c5760003560e01c806303e9e609146100515780633446106714610083578063735d91cb146100b5578063b8647788146100d1575b600080fd5b61006b6004803603810190610066919061035b565b6100f1565b60405161007a9392919061048f565b60405180910390f35b61009d6004803603810190610098919061035b565b6101a4565b6040516100ac9392919061048f565b60405180910390f35b6100cf60048036038101906100ca9190610384565b6101de565b005b6100d9610283565b6040516100e89392919061048f565b60405180910390f35b60008060008080549050841061013c576040517f08c379a00000000000000000000000000000000000000000000000000000000081526004016101339061044f565b60405180910390fd5b6000808581548110610177577f4e487b7100000000000000000000000000000000000000000000000000000000600052603260045260246000fd5b90600052602060002090600302019050806000015481600101548260020154935093509350509193909250565b600081815481106101b457600080fd5b90600052602060002090600302016000915090508060000154908060010154908060020154905083565b6000604051806060016040528084815260200183815260200142815250908060018154018082558091505060019003906000526020600020906003020160009091909190915060008201518160000155602082015181600101556040820151816002015550507f5ce03081dd6e455f5d8dad80ec72dd1ee03f83a153fd86001135a050ec582fa58282426040516102779392919061048f565b60405180910390a15050565b600080600080600080549050116102cf576040517f08c379a00000000000000000000000000000000000000000000000000000000081526004016102c69061046f565b60405180910390fd5b60008060016000805490506102e491906104d7565b8154811061031b577f4e487b7100000000000000000000000000000000000000000000000000000000600052603260045260246000fd5b9060005260206000209060030201905080600001548160010154826002015493509350935050909192565b60008135905061035581610544565b92915050565b60006020828403121561036d57600080fd5b600061037b84828501610346565b91505092915050565b6000806040838503121561039757600080fd5b60006103a585828601610346565b92505060206103b685828601610346565b9150509250929050565b60006103cd600d836104c6565b91507f496e76616c696420696e646578000000000000000000000000000000000000006000830152602082019050919050565b600061040d6010836104c6565b91507f4e6f207265636f72647320666f756e64000000000000000000000000000000006000830152602082019050919050565b6104498161050b565b82525050565b60006020820190508181036000830152610468816103c0565b9050919050565b6000602082019050818103600083015261048881610400565b9050919050565b60006060820190506104a46000830186610440565b6104b16020830185610440565b6104be6040830184610440565b949350505050565b600082825260208201905092915050565b60006104e28261050b565b91506104ed8361050b565b925082821015610500576104ff610515565b5b828203905092915050565b6000819050919050565b7f4e487b7100000000000000000000000000000000000000000000000000000000600052601160045260246000fd5b61054d8161050b565b811461055857600080fd5b5056fea264697066735822122078b11b363df014c5a397f530d8364d61d3f0d272ccbd2d9ec214cd8953cbe94064736f6c63430008000033",
  "immutableReferences": {},
  "source": "// SPDX-License-Identifier: MIT\r\n// SPDX-License-Identifier: MIT\r\npragma solidity ^0.8.0;\r\n\r\ncontract SensorDataStorage {\r\n    struct SensorData {\r\n        uint256 temperature;\r\n        uint256 humidity;\r\n        uint256 timestamp;\r\n    }\r\n\r\n    SensorData[] public records;\r\n\r\n    event DataStored(uint256 temperature, uint256 humidity, uint256 timestamp);\r\n\r\n    function storeSensorData(uint256 _temperature, uint256 _humidity) public {\r\n        records.push(SensorData(_temperature, _humidity, block.timestamp));\r\n        emit DataStored(_temperature, _humidity, block.timestamp);\r\n    }\r\n\r\n    function getRecord(uint index) public view returns (uint256, uint256, uint256) {\r\n        require(index < records.length, \"Invalid index\");\r\n        SensorData storage data = records[index];\r\n        return (data.temperature, data.humidity, data.timestamp);\r\n    }\r\n\r\n    function getLatestRecord() public view returns (uint256, uint256, uint256) {\r\n        require(records.length > 0, \"No records found\");\r\n        SensorData storage data = records[records.length - 1];\r\n        return (data.temperature, data.humidity, data.timestamp);\r\n    }\r\n}\r\n",
  "sourcePath": "C:\\Users\\DELL\\Desktop\\project\\contracts\\SensorData.sol",
  "compiler": {
    "name": "solc",
    "version": "0.8.0+commit.c7dfd78e.Emscripten.clang"
  },
  "schemaVersion": "3.4.16",
  "updatedAt": "2025-03-07T11:07:34.310Z",
  "devdoc": {
    "kind": "dev",
    "methods": {},
    "version": 1
  },
  "userdoc": {
    "kind": "user",
    "methods": {},
    "version": 1
  }
}