{
  "contractName": "SensorData",
  "abi": [
    {
      "anonymous": false,
      "inputs": [
        {
          "indexed": false,
          "internalType": "uint256",
          "name": "temperature",
          "type": "uint256"
        },
        {
          "indexed": false,
          "internalType": "uint256",
          "name": "humidity",
          "type": "uint256"
        },
        {
          "indexed": false,
          "internalType": "uint256",
          "name": "timestamp",
          "type": "uint256"
        }
      ],
      "name": "DataStored",
      "type": "event"
    },
    {
      "inputs": [
        {
          "internalType": "uint256",
          "name": "",
          "type": "uint256"
        }
      ],
      "name": "readings",
      "outputs": [
        {
          "internalType": "uint256",
          "name": "temperature",
          "type": "uint256"
        },
        {
          "internalType": "uint256",
          "name": "humidity",
          "type": "uint256"
        },
        {
          "internalType": "uint256",
          "name": "timestamp",
          "type": "uint256"
        }
      ],
      "stateMutability": "view",
      "type": "function",
      "constant": true
    },
    {
      "inputs": [
        {
          "internalType": "uint256",
          "name": "_temperature",
          "type": "uint256"
        },
        {
          "internalType": "uint256",
          "name": "_humidity",
          "type": "uint256"
        }
      ],
      "name": "storeData",
      "outputs": [],
      "stateMutability": "nonpayable",
      "type": "function"
    },
    {
      "inputs": [],
      "name": "getLatestReading",
      "outputs": [
        {
          "internalType": "uint256",
          "name": "",
          "type": "uint256"
        },
        {
          "internalType": "uint256",
          "name": "",
          "type": "uint256"
        },
        {
          "internalType": "uint256",
          "name": "",
          "type": "uint256"
        }
      ],
      "stateMutability": "view",
      "type": "function",
      "constant": true
    }
  ],
  "bytecode": "0x608060405234801561001057600080fd5b50610441806100206000396000f3fe608060405234801561001057600080fd5b50600436106100415760003560e01c8063711c1c4a14610046578063aa4e054614610062578063d5da886d14610082575b600080fd5b610060600480360381019061005b9190610294565b6100b4565b005b61006a610159565b6040516100799392919061033f565b60405180910390f35b61009c6004803603810190610097919061026b565b61021c565b6040516100ab9392919061033f565b60405180910390f35b6000604051806060016040528084815260200183815260200142815250908060018154018082558091505060019003906000526020600020906003020160009091909190915060008201518160000155602082015181600101556040820151816002015550507f5ce03081dd6e455f5d8dad80ec72dd1ee03f83a153fd86001135a050ec582fa582824260405161014d9392919061033f565b60405180910390a15050565b600080600080600080549050116101a5576040517f08c379a000000000000000000000000000000000000000000000000000000000815260040161019c9061031f565b60405180910390fd5b60008060016000805490506101ba9190610387565b815481106101f1577f4e487b7100000000000000000000000000000000000000000000000000000000600052603260045260246000fd5b9060005260206000209060030201905080600001548160010154826002015493509350935050909192565b6000818154811061022c57600080fd5b90600052602060002090600302016000915090508060000154908060010154908060020154905083565b600081359050610265816103f4565b92915050565b60006020828403121561027d57600080fd5b600061028b84828501610256565b91505092915050565b600080604083850312156102a757600080fd5b60006102b585828601610256565b92505060206102c685828601610256565b9150509250929050565b60006102dd601383610376565b91507f4e6f20646174612073746f7265642079657421000000000000000000000000006000830152602082019050919050565b610319816103bb565b82525050565b60006020820190508181036000830152610338816102d0565b9050919050565b60006060820190506103546000830186610310565b6103616020830185610310565b61036e6040830184610310565b949350505050565b600082825260208201905092915050565b6000610392826103bb565b915061039d836103bb565b9250828210156103b0576103af6103c5565b5b828203905092915050565b6000819050919050565b7f4e487b7100000000000000000000000000000000000000000000000000000000600052601160045260246000fd5b6103fd816103bb565b811461040857600080fd5b5056fea26469706673582212205337110f7c2dcdf37539c203bbd072273adb14990715c71630630bc0cc37dbbc64736f6c63430008000033",
  "immutableReferences": {},
  "source": "// SPDX-License-Identifier: MIT\r\npragma solidity ^0.8.0;\r\n\r\ncontract SensorData {\r\n    struct Reading {\r\n        uint256 temperature;\r\n        uint256 humidity;\r\n        uint256 timestamp;\r\n    }\r\n\r\n    Reading[] public readings;\r\n    event DataStored(uint256 temperature, uint256 humidity, uint256 timestamp);\r\n\r\n    function storeData(uint256 _temperature, uint256 _humidity) public {\r\n        readings.push(Reading(_temperature, _humidity, block.timestamp));\r\n        emit DataStored(_temperature, _humidity, block.timestamp);\r\n    }\r\n\r\n    function getLatestReading() public view returns (uint256, uint256, uint256) {\r\n        require(readings.length > 0, \"No data stored yet!\");\r\n        Reading storage lastReading = readings[readings.length - 1];\r\n        return (lastReading.temperature, lastReading.humidity, lastReading.timestamp);\r\n    }\r\n}\r\n",
  "sourcePath": "C:\\Users\\DELL\\Desktop\\project\\contracts\\SensorData.sol",
  "compiler": {
    "name": "solc",
    "version": "0.8.0+commit.c7dfd78e.Emscripten.clang"
  },
  "schemaVersion": "3.4.16",
  "updatedAt": "2025-03-07T11:07:35.723Z",
  "networkType": "ethereum",
  "devdoc": {
    "kind": "dev",
    "methods": {},
    "version": 1
  },
  "userdoc": {
    "kind": "user",
    "methods": {},
    "version": 1
  }
}